:020000040000FA
:100000000C9463000C948B000C948B000C948B006C
:100010000C948B000C948B000C948B000C94710846
:100020000C948B000C948B000C948B000C948B0024
:100030000C948B000C948B000C948B000C948B0014
:100040000C9427080C948B000C948B000C948B0060
:100050000C948B000C948B000C948B000C948B00F4
:100060000C948B000C948B000200000000240027ED
:10007000002A0000000000250028002B00000000DE
:1000800000230026002900040404040404040402DC
:100090000202020202030303030303010204081025
:1000A00020408001020408102001020408102000F2
:1000B0000000080002010000030407000000000027
:1000C00000000000890A11241FBECFEFD8E0DEBF78
:1000D000CDBF11E0A0E0B1E0E4E1F6E102C005909F
:1000E0000D92A636B107D9F721E0A6E6B1E001C02E
:1000F0001D92A53CB207E1F710E0C3E6D0E004C0D2
:100100002197FE010E94F30AC236D107C9F70E9467
:10011000CD080C94080B0C940000833081F028F477
:10012000813099F08230A9F008958730A9F08830A5
:10013000C9F08430B1F4809180008F7D03C080913C
:1001400080008F7780938000089584B58F7784BD79
:10015000089584B58F7DFBCF8091B0008F77809319
:10016000B00008958091B0008F7DF9CFCF93DF93D9
:10017000282F30E0F901E155FF4F8491F901E55650
:10018000FF4FD491F901E957FF4FC491CC23A1F05F
:1001900081110E948D00EC2FF0E0EE0FFF1FE3585D
:1001A000FF4FA591B491EC91ED2381E090E009F42B
:1001B00080E0DF91CF91089580E090E0FACF1F9327
:1001C000CF93DF93282F30E0F901E155FF4F849161
:1001D000F901E556FF4FD491F901E957FF4FC4915A
:1001E000CC23A9F0162F81110E948D00EC2FF0E096
:1001F000EE0FFF1FED58FF4FA591B4918FB7F89404
:10020000EC91111108C0D095DE23DC938FBFDF91F4
:10021000CF911F910895DE2BF8CFCF93DF9390E01D
:10022000FC01E556FF4F249189579F4FFC018491B3
:100230008823D1F090E0880F991FFC01E759FF4F08
:10024000A591B491FC01ED58FF4FC591D491623056
:1002500071F49FB7F8943C91822F809583238C93FF
:10026000E8812E2B28839FBFDF91CF9108958FB710
:10027000F894EC912E2B2C938FBFF6CF8E50806488
:1002800080937C0080917A00806480937A008091D2
:100290007A0086FDFCCF80917800909179000895D6
:1002A0003FB7F8948091A9019091AA01A091AB0168
:1002B000B091AC0126B5A89B05C02F3F19F001965F
:1002C000A11DB11D3FBFBA2FA92F982F8827BC01B0
:1002D000CD01620F711D811D911D42E0660F771FD8
:1002E000881F991F4A95D1F708958F929F92AF92D8
:1002F000BF92CF92DF92EF92FF926B017C010E943E
:1003000050014B015C01C114D104E104F104B9F0C6
:100310000E945001681979098A099B09683E734057
:100320008105910580F321E0C21AD108E108F108A6
:1003300088EE880E83E0981EA11CB11CE4CFFF90CC
:10034000EF90DF90CF90BF90AF909F908F900895E7
:100350002FB7F8946091A5017091A6018091A70133
:100360009091A8012FBF08959091000189130BC0AF
:10037000E8E6F0E0E4919FEF90930001E13049F06E
:1003800028F0E23061F060E00C94DF0010926E0023
:10039000FACF90916F009D7F90936F00F4CF909172
:1003A00070009D7F9093700091E09093B0009091C9
:1003B000B100987F94609093B1001092B300E3CFA6
:1003C0004F925F926F927F928F929F92AF92BF9265
:1003D000CF92DF92EF92FF920F931F93CF93DF9311
:1003E00000D000D01F92CDB7DEB78B0129013A01B2
:1003F000909100018917C9F09F3F09F47EC00F90CA
:100400000F900F900F900F90DF91CF911F910F9150
:10041000FF90EF90DF90CF90BF90AF909F908F9024
:100420007F906F905F904F900895E8E6F0E0949190
:100430009D8397FDE4CF61E00E940D018D818823AB
:1004400021F09D81923009F04AC14801B12CA12CC4
:1004500060E072E18AE790E0A50198010E94C90A74
:1004600029833A834B835C8369017A0181E0C81A4E
:10047000D108E108F1089FEFC916D104E104F104A5
:1004800009F00CF401C160E472E48FE090E0A50192
:1004900098010E94C90A69017A0181E0C81AD1084D
:1004A000E108F1089D81923009F0A2C08FEFC816D3
:1004B000D104E104F10409F00CF4E6C160E970ED47
:1004C00083E090E0A50198010E94C90A69017A01C0
:1004D00091E0C91AD108E108F1088FEFC816D104DC
:1004E000E104F10411F00CF07FC183E09091B100C0
:1004F000987F892B8093B100CFC080930001E8E6FC
:10050000F0E094919D839F3F09F479CF913041F1C0
:1005100050F0923009F446C09D8197FD70CF61E0A4
:100520000E940D018ECF14BC15BC94B5926094BD91
:1005300095B5916095BD282F30E0F901E957FF4F3F
:10054000E491F0E0EE0FFF1FED58FF4F45915491FD
:10055000F901E556FF4FE491E09367011D826BCFEF
:100560001092800010928100909181009860909389
:10057000810090918100916090938100282F30E05C
:10058000F901E957FF4FE491F0E0EE0FFF1FED583E
:10059000FF4F45915491F901E556FF4FE491E093E7
:1005A000660149CF1092B0001092B1009091B00056
:1005B00092609093B0009091B10091609093B100DF
:1005C000282F30E0F901E957FF4FE491F0E0EE0FFA
:1005D000FF1FED58FF4F4591549150937101409387
:1005E0007001F901E556FF4FE491E093720123CFCA
:1005F0009FEFC916D104E104F10409F00CF46DC0B9
:1006000068E478EE81E090E0A50198010E94C90AB3
:1006100069017A0181E0C81AD108E108F1089D81D9
:10062000992309F4FAC08FEFC816D104E104F1044C
:1006300011F00CF0FBC0EFC064E274EF80E090E0DA
:10064000A50194010E94C90A69017A0181E0C81AD2
:10065000D108E108F10885E09FEFC916D104E10453
:10066000F10409F008F442CF62E17AE780E090E01B
:10067000A50194010E94C90A69017A0181E0C81AA2
:10068000D108E108F108E5C081E09D8191112ECFEC
:1006900095B5987F892B85BD2FEF3FEFA9014114B8
:1006A00051046104710409F043C09D81913009F443
:1006B0005EC0923009F46DC09111A1CEC7BC2093E9
:1006C0006C0130936D0140936E0150936F018091E6
:1006D0006E00826080936E0092CE82E0D6CFB12C05
:1006E000A12C60E072E18AE790E0A50198010E94E8
:1006F000C90A69017A0181E0C81AD108E108F10844
:10070000C114D10491E0E906F10404F591E08D8172
:10071000813011F680918100887F892B8093810040
:100720002FEF3FEFA9014114510461047104F9F066
:10073000D801AA0FBB1FA30192010E94E80A28EE6C
:1007400033E040E050E00E94A70AAFCF68E478EEC3
:1007500081E090E0A50198010E94C90A69017A012F
:1007600081E0C81AD108E108F10893E0D0CFD09217
:100770008900C092880020936801309369014093FA
:100780006A0150936B0180916F00826080936F00CB
:1007900036CEC092B300209373013093740140931E
:1007A0007501509376018091700082608093700093
:1007B00026CE84E09FEFC916D104E104F10409F0CC
:1007C00008F466CFC980DA80EB80FC808AE0F5947B
:1007D000E794D794C7948A95D1F781E0C81AD108D5
:1007E000E108F10885E054CF68E478EE81E090E01C
:1007F000A50198010E94C90A69017A0181E0C81A1D
:10080000D108E108F1089FEFC916D104E104F10411
:1008100011F00CF011CF84E069CE83E09FEFC91690
:10082000D104E104F10409F00CF432CF62E17AE77B
:1008300080E090E0A50194010E94C90A69017A0153
:1008400081E0C81AD108E108F1089D81992309F4D3
:10085000B0CF86E09FEFC916D104E104F10409F09E
:1008600008F444CEC980DA80EB80FC809AE0F594ED
:10087000E794D794C7949A95D1F781E0C81AD10824
:10088000E108F10887E032CE82E030CEAF92BF922D
:10089000CF92DF92EF92FF920F931F93CF93DF934C
:1008A0006C017B018B01040F151FEB015E01AE187B
:1008B000BF08C017D10759F06991D601ED91FC919D
:1008C0000190F081E02DC6010995892B79F7C501CA
:1008D000DF91CF911F910F91FF90EF90DF90CF901C
:1008E000BF90AF900895089590E080E00895CF9272
:1008F000DF92EF92FF926B01770FEE08FF08A701DE
:100900009601BC0186E00E94E001C701B6010E9489
:10091000750186E00E94B40162E370E080E090E03F
:10092000FF90EF90DF90CF900C94750164E670E03B
:1009300085E291E00E94770464E670E085E291E050
:100940000E94770464E670E08BE492E00E947704F2
:1009500064E670E088EB91E00E94770464E670E062
:100960008FE991E00E94770464E670E088E891E006
:100970000E94770468EC70E08DE591E00E947704B6
:1009800064E670E085E291E00E94770464E670E03E
:100990008DE591E00E94770464E670E088E891E0DC
:1009A0000E94770464E670E085E091E00E9477049D
:1009B00064E670E085E091E00E94770464E670E010
:1009C0008BE492E00E94770464E670E088EB91E0AB
:1009D0000E94770464E670E08FE991E00E9477045A
:1009E00064E670E088E891E00E94770468EC70E0CB
:1009F0008DE591E00E94770464E670E085E291E085
:100A00000E94770464E670E08DE591E00E9477042F
:100A100064E670E088E891E00E94770464E670E0A4
:100A200087EF90E00E94770464E670E087EF90E043
:100A30000E94770464E670E08BE492E00E94770401
:100A400064E670E088EB91E00E94770464E670E071
:100A50008FE991E00E94770464E670E088E891E015
:100A60000E94770468EC70E08DE591E00E947704C5
:100A700064E670E085E291E00E94770464E670E04D
:100A80008DE591E00E94770464E670E088E891E0EB
:100A90000C9477048F929F92AF92BF920F931F9303
:100AA000CF93DF93CDB7DEB7A1970FB6F894DEBF33
:100AB0000FBECDBF19A2423008F44AE08E010F5D8F
:100AC0001F4F842E912CB12CA12CA50194010E94C2
:100AD000A70AE62FB901CA01EA3044F5E05DD80162
:100AE000EE938D01232B242B252B79F790E080E0CA
:100AF000109769F0FD0101900020E9F73197AF01EF
:100B00004A1B5B0BBD018DEA91E00E944604A19651
:100B10000FB6F894DEBF0FBECDBFDF91CF911F910E
:100B20000F91BF90AF909F908F900895E95CD7CFC1
:100B3000FC0101900020E9F73197AF01481B590BE8
:100B4000BC018DEA91E00C944604CF93DF93EC0155
:100B500060E08E810E94DF0061E08E810E94DF00F4
:100B600060E08E810E94DF008BE891E00197F1F751
:100B7000DF91CF910895CF92DF92EF92FF920F9382
:100B80001F93CF93DF936C017C0187E0E80EF11C8B
:100B9000D0E0C0E0062F10E0B8010C2E02C0759521
:100BA00067950A94E2F76170F70181917F010E94D5
:100BB000DF002196C430D10579F7C601DF91CF91CE
:100BC0001F910F91FF90EF90DF90CF900C94A505AF
:100BD000CF92DF92EF92FF920F931F93CF93DF9309
:100BE000EC01F62E642F8C810E94DF008D818F3FF7
:100BF00019F060E00E94DF000F2D10E08F8584FF68
:100C000025C06E0187E0C80ED11CF12CE12CB80183
:100C10000E2C02C0759567950A94E2F76170F60193
:100C200081916F010E94DF00FFEFEF1AFF0A88E059
:100C3000E816F10461F7CE01DF91CF911F910F917A
:100C4000FF90EF90DF90CF900C94A505B80184E061
:100C5000759567958A95E1F7CE010E94BB056F2DCA
:100C6000CE01DF91CF911F910F91FF90EF90DF9018
:100C7000CF900C94BB0540E0682F8DEA91E00C9476
:100C8000E80581E00E943B068BE39FE10197F1F7C5
:100C90000895CF93DF93823029F49091BC0198603E
:100CA0009093BC018093C0011092C10180E48093B5
:100CB000C20180E18093C30180E58093C40161E0BB
:100CC0008091B1010E940D018091B2018F3F19F016
:100CD00061E00E940D0161E08091B3010E940D016D
:100CE000CDEAD1E09E012D5A31408091BC0184FDB6
:100CF0000BC084E090E021962817390744F461E0A6
:100D00008E810E940D01EECF88E090E0F4CF8BE35E
:100D10009DE00197F1F760E08091B1010E94DF0052
:100D200060E08091B3010E94DF008091B2018F3FAB
:100D300019F060E00E94DF008091BC0184FD34C0A6
:100D400063E08DEA91E00E94BB05CBE4D6E4CE01DE
:100D50000197F1F763E08DEA91E00E94BB052197CE
:100D6000F1F763E08DEA91E00E94BB0583E592E034
:100D70000197F1F762E08DEA91E00E94BB05809156
:100D8000BC0180620E943B0684E08093BD018CE040
:100D90000E943B060E94410682E08093BE0186E0ED
:100DA000DF91CF910C943B0680620E943B068BE45E
:100DB00096E40197F1F78091BC0180620E943B06A6
:100DC00083E592E00197F1F78091BC0180620E9477
:100DD0003B06D5CF643008F063E09091C0016917FD
:100DE00010F06FEF690FE62FF0E0E355FE4F9489A6
:100DF000890F80680C943B060E94410660E080E009
:100E00000E94EA068BE291E00E94980561E080E092
:100E10000E94EA068AE391E00E94980588E00E9419
:100E2000B6000197D9F36CE271E080E090E00C9499
:100E3000750141E00E94E80581E090E008950F937C
:100E40001F93CF93DF938B0128E0829FC001112471
:100E500080640E943B06E801085F1F4F69918DEA9C
:100E600091E00E941907C017D107C1F7DF91CF9118
:100E70001F910F9108950F931F93CF93DF930E94BB
:100E8000410609E711E0C0E0D1E0F801D08360E05D
:100E90008C2F0E94EA0662E08DEA91E00E94190719
:100EA000F801D18361E08C2F0E94EA0662E08DEAAE
:100EB00091E00E9419070E5F1F4FCF5FC03129F7E5
:100EC00082E090E090931E0180931D0181E090E00C
:100ED00090931A01809319018FE090E090931C0188
:100EE00080931B0110929A0110929901109278013F
:100EF00010927701D093A3010E94A80160939F01F3
:100F00007093A0018093A1019093A2010E94A80177
:100F100060939B0170939C0180939D0190939E012F
:100F200061E082E00E94EA0660E08DEA91E00E94C2
:100F3000190760E08FE00E94EA0661E08DEA91E027
:100F4000DF91CF911F910F910C9419070F931F936D
:100F5000CF93DF93C0911D01D0911E010091190123
:100F600010911A018C0F9D1F8031910514F08FE0B4
:100F700090E097FF02C090E080E090931E01809384
:100F80001D01600F711F1616170614F461E070E062
:100F900077FF02C070E060E070931A01609319015E
:100FA000602F8C2F0E94EA06CC0FDD1FC758DE4F42
:100FB000C00FD11F8881882309F43FC062E08DEA09
:100FC00091E00E9419070091190110911A01C09136
:100FD0001D01D0911E01602F8C2F0E94EA0660E057
:100FE0008DEA91E00E941907CC0FDD1FC758DE4F34
:100FF000C00FD11F8881882351F01882809177011A
:101000009091780101969093780180937701E9E7B8
:10101000F1E081E09081911180E09181911180E077
:10102000329691E0E939F907A9F7882359F0DF9161
:10103000CF911F910F910C943B0784E691E00E94A1
:101040009805C1CFDF91CF911F910F9108951F9205
:101050000F920FB60F9211242F933F938F939F936C
:10106000AF93BF938091A5019091A601A091A70194
:10107000B091A8013091A40123E0230F2D3758F53A
:101080000196A11DB11D2093A4018093A501909309
:10109000A601A093A701B093A8018091A901909106
:1010A000AA01A091AB01B091AC010196A11DB11DA7
:1010B0008093A9019093AA01A093AB01B093AC01D6
:1010C000BF91AF919F918F913F912F910F900FBE44
:1010D0000F901F90189526E8230F0296A11DB11DB1
:1010E000D2CF1F920F920FB60F9211242F933F93DE
:1010F0004F935F936F937F938F939F93AF93BF9320
:10110000EF93FF938091730190917401A091750109
:10111000B0917601892B8A2B8B2BD1F190917201A2
:10112000E0917001F0917101808189278083809125
:10113000730190917401A0917501B0917601181618
:1011400019061A061B069CF4809173019091740194
:10115000A0917501B09176010197A109B109809321
:10116000730190937401A0937501B0937601FF9180
:10117000EF91BF91AF919F918F917F916F915F910F
:101180004F913F912F910F900FBE0F901F90189588
:10119000809100010E94B401EACF789484B5826006
:1011A00084BD84B5816084BD85B5826085BD85B50B
:1011B000816085BD80916E00816080936E00109289
:1011C0008100809181008260809381008091810004
:1011D0008160809381008091800081608093800095
:1011E0008091B10084608093B1008091B0008160F3
:1011F0008093B00080917A00846080937A0080911F
:101200007A00826080937A0080917A008160809376
:101210007A0080917A00806880937A001092C100F1
:1012200062E088E00E940D0162E089E00E940D0109
:1012300061E086E00E940D0161E087E00E940D01FF
:1012400082E00E94490661E171E080E00E941F0790
:1012500069E071E081E00E941F0761E071E082E0D7
:101260000E941F070E94FC060E9496040E943B07F2
:1012700000E010E08091A301882309F419C10E94C5
:10128000A801C0909F01D090A001E090A101F09032
:10129000A2016C197D098E099F09693C71058105C0
:1012A000910558F180E10E943E01EC018EE00E9420
:1012B0003E01CC3921E0D2073CF470E060E081E0EF
:1012C00090E00E94A6070FC0C536D2400CF0FCC0CB
:1012D000853622E092070CF0F2C061E070E08C39B4
:1012E00091400CF4EEC00E94A80160939F0170939E
:1012F000A0018093A1019093A2010E94A801C09037
:101300009B01D0909C01E0909D01F0909E016C1992
:101310007D098E099F09693E734081059105F0F1B1
:10132000C0911B01D0911C0180911D0190911E0163
:10133000E0909901F0909A01C817D9070CF0C9C044
:10134000CE01019690931C0180931B016E2D8C2F72
:101350000E94EA06CC0FDD1FC758DE4FCE0DDF1D01
:101360008881882309F4D0C062E08DEA91E00E9470
:1013700019076091990180911B010E94EA0661E0C2
:101380008DEA91E00E9419070E94A80160939B01D9
:1013900070939C0180939D0190939E0120911D016B
:1013A00030911E0180911B0190911C012817390773
:1013B00009F07EC02091190130911A0180919901A4
:1013C00090919A012817390709F072C01092A30171
:1013D0002CE231E040E050E060E971E087E00E94FB
:1013E000E0016CE271E080E090E00E9475012CE287
:1013F00031E040E050E06CE271E087E00E94E00103
:101400006CE271E080E090E00E94750124EF31E031
:1014100040E050E068EC70E087E00E94E00164EF9B
:1014200071E080E090E00E94750187E00E94B401C5
:101430000E94410660E080E00E94EA068BE491E0B1
:101440000E94980561E080E00E94EA068CE591E048
:101450000E949805C0907701D09078010D2C000C67
:10146000EE08FF084AE0C701B601F7FE0EC041E0F2
:101470006DE28DEA91E00E94E80566277727CB01AF
:101480006C197D098E099F094AE00E944A0589E08E
:101490000E94B6000197D9F36CE271E080E090E021
:1014A0000E9475010E94FC060E9496040E943B0760
:1014B0000115110509F4DECE0E940000DBCE6FEFAE
:1014C0007FEF90E080E0FDCE70E060E08FEF9FEF77
:1014D000F8CE8C179D071CF4CE01019733CF809175
:1014E000190190911A01E816F9063CF4C70101961A
:1014F00090939A018093990129CF8E159F050CF046
:1015000025CFC7010197F4CF84E691E00E949805AA
:1015100030CFEDEAF1E01382128283E291E0918311
:1015200080838CE084838FEF85838BE0868385E0E6
:10153000878384E0808783E081878DE082871386BC
:10154000148615861686178681E00C944906A1E25A
:101550001A2EAA1BBB1BFD010DC0AA1FBB1FEE1F2D
:10156000FF1FA217B307E407F50720F0A21BB30B78
:10157000E40BF50B661F771F881F991F1A9469F7F4
:1015800060957095809590959B01AC01BD01CF0150
:101590000895052E97FB1EF400940E94E00A57FD63
:1015A00007D00E94A70A07FC03D04EF40C94E00A6F
:1015B00050954095309521953F4F4F4F5F4F08957F
:1015C00090958095709561957F4F8F4F9F4F0895AF
:1015D0000E94F90AA59F900DB49F900DA49F800DC5
:1015E000911D11240895EE0FFF1F0590F491E02D39
:1015F0000994A29FB001B39FC001A39F700D811DEC
:101600001124911DB29F700D811D1124911D08950B
:10161000F894FFCFFF0000000E0E00000000000E47
:10162000151F1F150000000E1B1C0E000001000FEF
:10163000000200000000001907460474047304440B
:101640004F4F4D424F582D5041434D414E00507524
:101650006C7365204120746F20737461727400474D
:10166000414D45204F564552204C4F534552200086
:0A16700050756E74616A653A20003F
:107E0000112484B714BE81FFF0D085E080938100F7
:107E100082E08093C00088E18093C10086E0809377
:107E2000C20080E18093C4008EE0C9D0259A86E02C
:107E300020E33CEF91E0309385002093840096BBD3
:107E4000B09BFECF1D9AA8958150A9F7CC24DD24C4
:107E500088248394B5E0AB2EA1E19A2EF3E0BF2EE7
:107E6000A2D0813461F49FD0082FAFD0023811F036
:107E7000013811F484E001C083E08DD089C08234E0
:107E800011F484E103C0853419F485E0A6D080C0E4
:107E9000853579F488D0E82EFF2485D0082F10E0AE
:107EA000102F00270E291F29000F111F8ED06801E7
:107EB0006FC0863521F484E090D080E0DECF843638
:107EC00009F040C070D06FD0082F6DD080E0C81688
:107ED00080E7D80618F4F601B7BEE895C0E0D1E017
:107EE00062D089930C17E1F7F0E0CF16F0E7DF06D8
:107EF00018F0F601B7BEE89568D007B600FCFDCFD4
:107F0000A601A0E0B1E02C9130E011968C91119780
:107F100090E0982F8827822B932B1296FA010C0160
:107F200087BEE89511244E5F5F4FF1E0A038BF0790
:107F300051F7F601A7BEE89507B600FCFDCF97BE46
:107F4000E89526C08437B1F42ED02DD0F82E2BD052
:107F50003CD0F601EF2C8F010F5F1F4F84911BD097
:107F6000EA94F801C1F70894C11CD11CFA94CF0C13
:107F7000D11C0EC0853739F428D08EE10CD085E9AC
:107F80000AD08FE07ACF813511F488E018D01DD067
:107F900080E101D065CF982F8091C00085FFFCCF94
:107FA0009093C60008958091C00087FFFCCF809118
:107FB000C00084FD01C0A8958091C6000895E0E648
:107FC000F0E098E1908380830895EDDF803219F02E
:107FD00088E0F5DFFFCF84E1DECF1F93182FE3DFCA
:107FE0001150E9F7F2DF1F91089580E0E8DFEE27F6
:047FF000FF270994CA
:027FFE00040479
:00000001FF
